:100000000C942A000C9447000C9447000C94470071
:100010000C9447000C94BE060C9447000C944700C7
:100020000C9447000C9447000C9447000C94470034
:100030000C9447000C9447000C9447000C94470024
:100040000C9447000C9447000C9447000C94470014
:100050000C94470011241FBECFE5D8E0DEBFCDBF12
:1000600010E0A0E6B0E0EEEAFFE002C005900D92DD
:10007000A83BB107D9F710E0A8EBB0E001C01D9292
:10008000AB3BB107E1F70E94AC040C94D5070C948C
:100090000000843409F471C0853448F4823499F145
:1000A000833408F04DC0813409F083C00FC082361C
:1000B00051F1833620F4813609F07BC007C08336C6
:1000C00009F43EC0843609F074C057C0413069F469
:1000D0002AB381E090E0AC0102C0440F551F6A953D
:1000E000E2F7BA01622B6ABB08952AB381E090E07F
:1000F000AC0102C0440F551F6A95E2F7BA01609542
:1001000062236ABB0895413069F427B381E090E02F
:10011000AC0102C0440F551F6A95E2F7BA01622B89
:1001200067BB089527B381E090E0AC0102C0440FA3
:10013000551F6A95E2F7BA016095622367BB08957F
:10014000413069F424B381E090E0AC0102C0440F77
:10015000551F6A95E2F7BA01622B64BB089524B378
:1001600081E090E0AC0102C0440F551F6A95E2F7B0
:10017000BA016095622364BB0895413069F421B3EC
:1001800081E090E0AC0102C0440F551F6A95E2F790
:10019000BA01622B61BB089521B381E090E0AC010C
:1001A00002C0440F551F6A95E2F7BA0160956223B9
:1001B00061BB0895843409F471C0853448F48234F5
:1001C00099F1833408F04DC0813409F083C00FC029
:1001D000823651F1833620F4813609F07BC007C0A6
:1001E000833609F43EC0843609F074C057C04130EC
:1001F00069F42BB381E090E0AC0102C0440F551FBD
:100200006A95E2F7BA01622B6BBB08952BB381E0CC
:1002100090E0AC0102C0440F551F6A95E2F7BA01A5
:10022000609562236BBB0895413069F428B381E087
:1002300090E0AC0102C0440F551F6A95E2F7BA0185
:10024000622B68BB089528B381E090E0AC0102C046
:10025000440F551F6A95E2F7BA016095622368BBA7
:100260000895413069F425B381E090E0AC0102C00B
:10027000440F551F6A95E2F7BA01622B65BB0895DA
:1002800025B381E090E0AC0102C0440F551F6A9590
:10029000E2F7BA016095622365BB0895413069F4C5
:1002A00022B381E090E0AC0102C0440F551F6A9573
:1002B000E2F7BA01622B62BB089522B381E090E0BD
:1002C000AC0102C0440F551F6A95E2F7BA01609570
:1002D000622362BB0895843409F43DC0853440F440
:1002E0008234F9F0833450F5813409F040C00CC0F9
:1002F0008236B9F0833618F48136C9F505C08336E5
:10030000E9F08436A1F527C02BB381E090E0AC0181
:1003100002C0440F551F6A95E2F7BA0162276BBB12
:10032000089528B381E090E0AC0102C0440F551F4E
:100330006A95E2F7BA01622768BB089525B381E0A8
:1003400090E0AC0102C0440F551F6A95E2F7BA0174
:10035000622765BB089522B381E090E0AC0102C042
:10036000440F551F6A95E2F7BA01622762BB0895F0
:10037000843409F44EC0853440F4823431F183343E
:10038000B0F5813409F057C00EC08236F1F08336E3
:1003900020F4813609F04FC006C0833641F184361F
:1003A00009F049C036C029B381E090E0062E02C0B2
:1003B000880F991F0A94E2F730E08223932302C04A
:1003C000969587956A95E2F7089526B381E090E0C7
:1003D000062E02C0880F991F0A94E2F730E08223AC
:1003E000932302C0969587956A95E2F7089523B303
:1003F00081E090E0062E02C0880F991F0A94E2F770
:1004000030E08223932302C0969587956A95E2F7A0
:10041000089520B381E090E0062E02C0880F991F56
:100420000A94E2F730E08223932302C096958795E1
:100430006A95E2F7089580E008958434D9F0853410
:1004400038F4823499F0833498F48134A1F40CC0E8
:10045000823661F0833618F4813669F405C083363C
:1004600039F0843641F406C06ABB089567BB08952D
:1004700064BB089561BB08958434D9F0853438F4A1
:10048000823499F0833498F48134A1F40CC082361C
:1004900061F0833618F4813669F405C0833639F08B
:1004A000843641F406C06BBB089568BB089565BBF4
:1004B000089562BB08956F70823481F0833418F41C
:1004C0008134F1F405C0833479F08434C9F412C066
:1004D0008BB3807F8BBB8BB3862B8BBB88B3807F2A
:1004E00088BB88B3862B88BB85B3807F85BB85B3EB
:1004F000862B85BB82B3807F82BB82B3682B62BBB5
:1005000008956295607F823481F0833418F48134D9
:10051000F1F405C0833479F08434C9F412C08BB38C
:100520008F708BBB8BB3862B8BBB88B38F7088BBD4
:1005300088B3862B88BB85B38F7085BB85B3862B2C
:1005400085BB82B38F7082BB82B3682B62BB089578
:10055000843409F471C0853448F4823499F18334C9
:1005600008F04DC0813409F083C00FC0823651F1CC
:10057000833620F4813609F07BC007C0833609F446
:100580003EC0843609F074C057C0413069F42BB3C3
:1005900081E090E0AC0102C0440F551F6A95E2F77C
:1005A000BA01622B6BBB08952BB381E090E0AC01E4
:1005B00002C0440F551F6A95E2F7BA0160956223A5
:1005C0006BBB0895413069F428B381E090E0AC0141
:1005D00002C0440F551F6A95E2F7BA01622B68BB4F
:1005E000089528B381E090E0AC0102C0440F551F8C
:1005F0006A95E2F7BA016095622368BB08954130BD
:1006000069F425B381E090E0AC0102C0440F551FAE
:100610006A95E2F7BA01622B65BB089525B381E0C4
:1006200090E0AC0102C0440F551F6A95E2F7BA0191
:100630006095622365BB0895413069F422B381E07F
:1006400090E0AC0102C0440F551F6A95E2F7BA0171
:10065000622B62BB089522B381E090E0AC0102C03E
:10066000440F551F6A95E2F7BA016095622362BB99
:100670000895CF93C82F6FE00E941D028C2F64E075
:1006800041E00E94A8028C2F65E041E00E94A80290
:100690008C2F66E041E00E94A8028C2F67E041E0C9
:1006A0000E94A802CF910895FF920F931F93CF93BA
:1006B000DF93CDB7DEB760970FB6F894DEBF0FBEFD
:1006C000CDBF082FDE011196E0E6F0E080E1019059
:1006D0000D928150E1F7FF24802F60E041E00E94FD
:1006E000DA00802F61E041E00E94DA00802F62E0B2
:1006F00041E00E94DA00802F63E041E00E94DA00CE
:10070000802F6F2D40E00E94DA0010E0612F6C5FB7
:10071000802F0E94B801882361F4EF2DF0E0EE0FE6
:10072000FF1FEE0FFF1FE10FF11DEC0FFD1F818179
:1007300004C01F5F143051F70CC060960FB6F894D8
:10074000DEBF0FBECDBFDF91CF911F910F91FF9004
:100750000895F39484E0F81609F0BECF8FEFEDCF43
:1007600081E460E041E00E94DA008FE99FE00197B8
:10077000F1F700C0000081E460E040E00E94DA0090
:100780008FE99FE00197F1F700C000000895CF9333
:10079000DF93D82FC62F62956F700E94810281E48B
:1007A00062E041E00E94DA000E94B0038D2F6C2FBE
:1007B0000E94810281E462E041E00E94DA000E942E
:1007C000B0038FEC97E00197F1F700C00000DF91D4
:1007D000CF910895CF93DF93D82FC62F62956F7076
:1007E0000E94810281E462E040E00E94DA000E94FF
:1007F000B0038D2F6C2F0E94810281E462E040E003
:100800000E94DA000E94B0038FEC97E00197F1F7A5
:1008100000C00000DF91CF910895CF93C82F8FEFD4
:1008200091EEA4E081509040A040E1F700C00000AC
:100830008C2F64E041E00E9449008C2F65E041E08C
:100840000E9449008C2F66E041E00E9449008C2FF5
:1008500067E041E00E94490081E460E041E00E94DD
:10086000490081E461E041E00E94490081E462E0E6
:1008700041E00E94490081E461E040E00E94DA002A
:100880008C2F62E00E94EA03AFE1BEE41197F1F71A
:1008900000C000008C2F68E20E94EA038FEC97E012
:1008A0000197F1F700C000008C2F6EE00E94EA0370
:1008B000AFECB7E01197F1F700C000008C2F61E0BA
:1008C0000E94EA038FE19EE40197F1F700C0000067
:1008D0008C2F66E00E94EA03AFECB7E01197F1F7C6
:1008E00000C00000CF9108951F93CF93DF93182F7E
:1008F000EB016881662339F02196812F0E94C7039E
:1009000069916623D1F7DF91CF911F910895962FBA
:100910009150923040F4613019F4642F615804C052
:10092000642F615401C060E80E94EA038FEC97E0F5
:100930000197F1F700C00000089541E00E944900CE
:10094000089541E00E94DA00089540E00E94DA0034
:1009500008950E946B01089582E60E94CF0681E40B
:100960000E940D0484E40E943903A09AA19AA29ADD
:10097000A39AA49AA59A81E460E770E00E947404A7
:1009800081E462E041E00E94870481E46BE770E06B
:100990000E9474040E94BB070F2EF4EACF2EF0E0F1
:1009A000DF2EF02D00E710E00F2EFBE7EF2EF0E03A
:1009B000FF2EF02D0F2EF5E8AF2EF0E0BF2EF02D1C
:1009C0000F2EFEE88F2EF0E09F2EF02D0F2EF9E96E
:1009D0006F2EF0E07F2EF02DCAE084E40E945403D5
:1009E0008093AC008F3F09F42DC1813309F003C11E
:1009F00081E461E00E94EA0381E4B5010E9474048D
:100A000081E461E047E00E9487048FEF94E3ACE06B
:100A100081509040A040E1F700C0000084E40E94B3
:100A20005403682F8093AB008F3FC1F381E40E9491
:100A3000C7038FEF92E5A7E081509040A040E1F717
:100A400000C0000084E40E945403682F8093AA0031
:100A50008F3FC1F381E40E94C7038FEF92E5A7E0C7
:100A600081509040A040E1F700C000008091AA00B2
:100A700080519091AB00990F292F220F220F920FD6
:100A8000890F8093B800883110F01092B80081E48B
:100A900061E00E94EA0381E4B4010E9474048FEFD4
:100AA00094E3ACE081509040A040E1F700C000002A
:100AB00084E40E9454038093AB008F3FC9F381E428
:100AC00061E049E00E94870481E46091AB000E94EC
:100AD000C7038FEF92E5A7E081509040A040E1F777
:100AE00000C0000084E40E945403682F8093AA0091
:100AF0008F3FC1F381E40E94C7038FEF92E5A7E027
:100B000081509040A040E1F700C000008091AA0011
:100B100080519091AB00990F292F220F220F920F35
:100B2000890F8093B9008C3310F01092B90081E4E2
:100B300061E00E94EA0381E4B3010E9474048FEF34
:100B400094E3ACE081509040A040E1F700C0000089
:100B500084E40E9454038093AB008F3FC9F381E487
:100B600061E049E00E94870481E46091AB000E944B
:100B7000C7038FEF92E5A7E081509040A040E1F7D6
:100B800000C0000084E40E945403682F8093AA00F0
:100B90008F3FC1F381E40E94C7038FEF92E5A7E086
:100BA00081509040A040E1F700C000009091AA0061
:100BB00090518091AB00880F282F220F220F820FB7
:100BC000890F8093BA008091BA008C3310F0109294
:100BD000BA0081E461E00E94EA0381E4B8010E9466
:100BE000740481E462E041E00E94870481E4B7017B
:100BF0000E94740427C081E461E00E94EA0381E45A
:100C000062E044E00E94870481E4B6010E9474041B
:100C10008FEF92E5A7E081509040A040E1F700C03F
:100C2000000081E461E00E94EA0381E4B8010E94CF
:100C3000740481E462E041E00E94870481E4B7012A
:100C40000E947404A898A99AAA9AAB9AAC9AAD9AF1
:100C50008091BA006C2F0E94C90782E4692F0E941C
:100C6000D306AFE0B7E21197F1F700C00000A89AF1
:100C7000A998AA9AAB9AAC9AAD9A8091BA006C2FB7
:100C80000E94C907682F82E40E94D3068FE097E292
:100C90000197F1F700C00000A89AA99AAA98AB9A08
:100CA000AC9AAD9A8091B9006C2F0E94C90782E47A
:100CB000692F0E94D306AFE0B7E21197F1F700C0A9
:100CC0000000A89AA99AAA9AAB98AC9AAD9A80917A
:100CD000B9006C2F0E94C907682F82E40E94D306D6
:100CE0008FE097E20197F1F700C00000A89AA99A57
:100CF000AA9AAB9AAC98AD9A8091B8006C2F0E94DA
:100D0000C90782E4692F0E94D306AFE0B7E21197CA
:100D1000F1F700C00000A89AA99AAA9AAB9AAC9AD7
:100D2000AD988091B8006C2F0E94C907682F82E4AB
:100D30000E94D3068FE097E20197F1F700C0000010
:100D40008091BA008C3339F41092BA008091B900C6
:100D50008F5F8093B9008091B9008C3339F4109281
:100D6000B9008091B8008F5F8093B8008091B8007F
:100D7000883109F032CE1092B8002FCE1F920F9218
:100D80000FB60F9211248F938091BA008F5F8093DA
:100D9000BA008F910F900FBE0F901F9018956FEFB4
:100DA0000E941D020895CF93DF93CDB7DEB72A9737
:100DB0000FB6F894DEBF0FBECDBFDE011196EDEA8F
:100DC000F0E09AE001900D929150E1F7FE01E60FFC
:100DD000F11D61810E943C022A960FB6F894DEBF95
:100DE0000FBECDBFDF91CF910895813059F0813092
:100DF00028F0823059F08330A1F40DC083B78F7B87
:100E000083BF0FC083B7806483BF0BC083B7886084
:100E100083BF4CBF06C083B7886083BF83B780643D
:100E200083BF60347105A1F06134710524F468302A
:100E30007105F9F409C081E06030780781F084E041
:100E400060307807B1F40FC083B7826083BF11C0F0
:100E500083B7826083BF83B7816083BF0AC083B7D3
:100E6000846083BF06C083B7846083BF83B781601B
:100E700083BF789489B7826089BF0895BB9A93B77E
:100E8000986093BF93B7906493BF8CBF6034710533
:100E9000A1F06134710524F468307105F9F409C0DA
:100EA00081E06030780781F084E060307807B1F449
:100EB0000FC083B7826083BF11C083B7826083BFD6
:100EC00083B7816083BF0AC083B7846083BF06C0D5
:100ED00083B7846083BF83B7816083BF442319F0E5
:100EE000413059F407C083B7806183BF83B7806204
:100EF00083BF089583B7806283BF0895BB9A93B779
:100F0000906493BF8CBF60347105A1F061347105AA
:100F100024F468307105F9F409C081E06030780785
:100F200081F084E060307807B1F40FC083B782604D
:100F300083BF11C083B7826083BF83B7816083BFE3
:100F40000AC083B7846083BF06C083B7846083BF51
:100F500083B7816083BF442319F0413059F407C03F
:100F600083B7806183BF83B7806283BF089583B7EF
:100F7000806283BF089582B5886082BD85B5846034
:100F800085BD85B5816085BD789489B7806489BF4A
:100F90000895991B79E004C0991F961708F0961BD5
:0E0FA000881F7A95C9F780950895F894FFCFC1
:100FAE003738392F3435362A3132332D41303D2BF7
:100FBE007072657373203120746F007365742063D3
:100FCE006C6F636B00686F7572733D2D2D006D69CC
:100FDE006E757465733D2D2D007365636F6E64734E
:100FEE003D2D2D0057524F4E4700FFFFFF3F065B32
:080FFE004F666D7D477F6F0017
:00000001FF
